{
  "_format": "hh-sol-artifact-1",
  "contractName": "UserRegistry",
  "sourceName": "contracts/UserRegistry.sol",
  "abi": [
    {
      "anonymous": false,
      "inputs": [
        {
          "indexed": true,
          "internalType": "address",
          "name": "patient",
          "type": "address"
        },
        {
          "indexed": false,
          "internalType": "uint256",
          "name": "recordId",
          "type": "uint256"
        },
        {
          "indexed": false,
          "internalType": "string",
          "name": "prediction",
          "type": "string"
        }
      ],
      "name": "PredictionLogged",
      "type": "event"
    },
    {
      "anonymous": false,
      "inputs": [
        {
          "indexed": true,
          "internalType": "address",
          "name": "walletAddress",
          "type": "address"
        },
        {
          "indexed": false,
          "internalType": "string",
          "name": "role",
          "type": "string"
        },
        {
          "indexed": false,
          "internalType": "uint256",
          "name": "timestamp",
          "type": "uint256"
        }
      ],
      "name": "UserRegistered",
      "type": "event"
    },
    {
      "anonymous": false,
      "inputs": [
        {
          "indexed": true,
          "internalType": "address",
          "name": "walletAddress",
          "type": "address"
        },
        {
          "indexed": false,
          "internalType": "uint256",
          "name": "timestamp",
          "type": "uint256"
        }
      ],
      "name": "UserUpdated",
      "type": "event"
    },
    {
      "inputs": [
        {
          "internalType": "address",
          "name": "_address",
          "type": "address"
        }
      ],
      "name": "getUserDetails",
      "outputs": [
        {
          "internalType": "address",
          "name": "walletAddress",
          "type": "address"
        },
        {
          "internalType": "string",
          "name": "fullNameHash",
          "type": "string"
        },
        {
          "internalType": "string",
          "name": "nricHash",
          "type": "string"
        },
        {
          "internalType": "string",
          "name": "email",
          "type": "string"
        },
        {
          "internalType": "string",
          "name": "role",
          "type": "string"
        },
        {
          "internalType": "uint256",
          "name": "registeredAt",
          "type": "uint256"
        },
        {
          "internalType": "bool",
          "name": "isActive",
          "type": "bool"
        }
      ],
      "stateMutability": "view",
      "type": "function"
    },
    {
      "inputs": [
        {
          "internalType": "address",
          "name": "_address",
          "type": "address"
        }
      ],
      "name": "isUserRegistered",
      "outputs": [
        {
          "internalType": "bool",
          "name": "",
          "type": "bool"
        }
      ],
      "stateMutability": "view",
      "type": "function"
    },
    {
      "inputs": [
        {
          "internalType": "string",
          "name": "_symptomsHash",
          "type": "string"
        },
        {
          "internalType": "string",
          "name": "_topPrediction",
          "type": "string"
        }
      ],
      "name": "logPrediction",
      "outputs": [],
      "stateMutability": "nonpayable",
      "type": "function"
    },
    {
      "inputs": [],
      "name": "recordCount",
      "outputs": [
        {
          "internalType": "uint256",
          "name": "",
          "type": "uint256"
        }
      ],
      "stateMutability": "view",
      "type": "function"
    },
    {
      "inputs": [
        {
          "internalType": "uint256",
          "name": "",
          "type": "uint256"
        }
      ],
      "name": "records",
      "outputs": [
        {
          "internalType": "address",
          "name": "patientAddress",
          "type": "address"
        },
        {
          "internalType": "string",
          "name": "symptomsHash",
          "type": "string"
        },
        {
          "internalType": "string",
          "name": "topPrediction",
          "type": "string"
        },
        {
          "internalType": "uint256",
          "name": "timestamp",
          "type": "uint256"
        }
      ],
      "stateMutability": "view",
      "type": "function"
    },
    {
      "inputs": [
        {
          "internalType": "address",
          "name": "_walletAddress",
          "type": "address"
        },
        {
          "internalType": "string",
          "name": "_fullNameHash",
          "type": "string"
        },
        {
          "internalType": "string",
          "name": "_nricHash",
          "type": "string"
        },
        {
          "internalType": "string",
          "name": "_email",
          "type": "string"
        },
        {
          "internalType": "string",
          "name": "_role",
          "type": "string"
        }
      ],
      "name": "registerUser",
      "outputs": [],
      "stateMutability": "nonpayable",
      "type": "function"
    },
    {
      "inputs": [
        {
          "internalType": "string",
          "name": "_fullNameHash",
          "type": "string"
        },
        {
          "internalType": "string",
          "name": "_nricHash",
          "type": "string"
        },
        {
          "internalType": "string",
          "name": "_email",
          "type": "string"
        }
      ],
      "name": "updateUser",
      "outputs": [],
      "stateMutability": "nonpayable",
      "type": "function"
    },
    {
      "inputs": [
        {
          "internalType": "uint256",
          "name": "",
          "type": "uint256"
        }
      ],
      "name": "userAddresses",
      "outputs": [
        {
          "internalType": "address",
          "name": "",
          "type": "address"
        }
      ],
      "stateMutability": "view",
      "type": "function"
    },
    {
      "inputs": [],
      "name": "userCount",
      "outputs": [
        {
          "internalType": "uint256",
          "name": "",
          "type": "uint256"
        }
      ],
      "stateMutability": "view",
      "type": "function"
    },
    {
      "inputs": [
        {
          "internalType": "address",
          "name": "",
          "type": "address"
        }
      ],
      "name": "users",
      "outputs": [
        {
          "internalType": "address",
          "name": "walletAddress",
          "type": "address"
        },
        {
          "internalType": "string",
          "name": "fullNameHash",
          "type": "string"
        },
        {
          "internalType": "string",
          "name": "nricHash",
          "type": "string"
        },
        {
          "internalType": "string",
          "name": "email",
          "type": "string"
        },
        {
          "internalType": "string",
          "name": "role",
          "type": "string"
        },
        {
          "internalType": "uint256",
          "name": "registeredAt",
          "type": "uint256"
        },
        {
          "internalType": "bool",
          "name": "isActive",
          "type": "bool"
        }
      ],
      "stateMutability": "view",
      "type": "function"
    }
  ],
  "bytecode": "0x608060405234801561001057600080fd5b506112bd806100206000396000f3fe608060405234801561001057600080fd5b506004361061009d5760003560e01c806360903be61161006657806360903be614610160578063900407bc14610173578063999eab2b1461017c578063a87430ba1461018f578063cc3d967b146101b557600080fd5b8062ba3984146100a257806307973ccf146100b7578063163f7522146100d35780633446106714610112578063502c9bd514610135575b600080fd5b6100b56100b0366004610dc9565b6101c8565b005b6100c060025481565b6040519081526020015b60405180910390f35b6101026100e1366004610e49565b6001600160a01b031660009081526020819052604090206006015460ff1690565b60405190151581526020016100ca565b610125610120366004610e6b565b6102aa565b6040516100ca9493929190610eca565b610148610143366004610e6b565b6103ed565b6040516001600160a01b0390911681526020016100ca565b6100b561016e366004610f12565b610417565b6100c060045481565b6100b561018a366004610f9a565b610505565b6101a261019d366004610e49565b6107e0565b6040516100ca9796959493929190611058565b6101a26101c3366004610e49565b610a49565b600480549060006101d8836110d2565b909155505060408051608081018252338152602080820185815282840185905242606084015260045460009081526003909252929020815181546001600160a01b0319166001600160a01b039091161781559151909190600182019061023e9082611184565b50604082015160028201906102539082611184565b5060608201518160030155905050336001600160a01b03167f8127288c05c980a1230e20e40e7c4fe6b0afada4642cc2145fbb4ea9a45b575e6004548360405161029e929190611244565b60405180910390a25050565b600360205260009081526040902080546001820180546001600160a01b0390921692916102d6906110f9565b80601f0160208091040260200160405190810160405280929190818152602001828054610302906110f9565b801561034f5780601f106103245761010080835404028352916020019161034f565b820191906000526020600020905b81548152906001019060200180831161033257829003601f168201915b505050505090806002018054610364906110f9565b80601f0160208091040260200160405190810160405280929190818152602001828054610390906110f9565b80156103dd5780601f106103b2576101008083540402835291602001916103dd565b820191906000526020600020905b8154815290600101906020018083116103c057829003601f168201915b5050505050908060030154905084565b600181815481106103fd57600080fd5b6000918252602090912001546001600160a01b0316905081565b3360009081526020819052604090206006015460ff166104745760405162461bcd60e51b8152602060048201526013602482015272155cd95c881b9bdd081c9959da5cdd195c9959606a1b60448201526064015b60405180910390fd5b3360009081526020819052604090206001016104908482611184565b503360009081526020819052604090206002016104ad8382611184565b503360009081526020819052604090206003016104ca8282611184565b5060405142815233907f43ca283f77ef1cc413e9ed99cf3cec9f055cb57e133c045a39cbf70cb068057f9060200160405180910390a2505050565b6001600160a01b03851660009081526020819052604090206006015460ff16156105715760405162461bcd60e51b815260206004820152601760248201527f5573657220616c72656164792072656769737465726564000000000000000000604482015260640161046b565b6040805180820190915260078152661c185d1a595b9d60ca1b6020918201528151908201207fdc3b9d7fd28cfc7a70a999f2eb4b60672e6b88c8ed3280f4fb467b501b62b92e148061060557506040805180820190915260068152653237b1ba37b960d11b6020918201528151908201207fec03945fa2196716a09674e2cd6a57153479ecb05ea91e189e2688f793ab5381145b61065c5760405162461bcd60e51b815260206004820152602260248201527f526f6c65206d757374206265202770617469656e7427206f722027646f63746f604482015261722760f01b606482015260840161046b565b6040805160e0810182526001600160a01b03878116808352602080840189815284860189905260608501889052608085018790524260a0860152600160c0860181905260009384529183905294909120835181546001600160a01b0319169316929092178255925191929091908201906106d69082611184565b50604082015160028201906106eb9082611184565b50606082015160038201906107009082611184565b50608082015160048201906107159082611184565b5060a0820151600582015560c0909101516006909101805460ff191691151591909117905560018054808201825560009182527fb10e2d527612073b26eecdfd717e6a320cf44b4afac2b0732d9fcbe2b7fa0cf60180546001600160a01b0319166001600160a01b0388161790556002805491610791836110d2565b9190505550846001600160a01b03167f89105a1c6a3c2fbd471255c66a31ccab604af5697f67d7e2e9a0028c5e4dbd9182426040516107d1929190611265565b60405180910390a25050505050565b600060208190529081526040902080546001820180546001600160a01b03909216929161080c906110f9565b80601f0160208091040260200160405190810160405280929190818152602001828054610838906110f9565b80156108855780601f1061085a57610100808354040283529160200191610885565b820191906000526020600020905b81548152906001019060200180831161086857829003601f168201915b50505050509080600201805461089a906110f9565b80601f01602080910402602001604051908101604052809291908181526020018280546108c6906110f9565b80156109135780601f106108e857610100808354040283529160200191610913565b820191906000526020600020905b8154815290600101906020018083116108f657829003601f168201915b505050505090806003018054610928906110f9565b80601f0160208091040260200160405190810160405280929190818152602001828054610954906110f9565b80156109a15780601f10610976576101008083540402835291602001916109a1565b820191906000526020600020905b81548152906001019060200180831161098457829003601f168201915b5050505050908060040180546109b6906110f9565b80601f01602080910402602001604051908101604052809291908181526020018280546109e2906110f9565b8015610a2f5780601f10610a0457610100808354040283529160200191610a2f565b820191906000526020600020905b815481529060010190602001808311610a1257829003601f168201915b50505050600583015460069093015491929160ff16905087565b6001600160a01b03808216600090815260208181526040808320815160e0810190925280549094168152600184018054939460609485948594859489948594859491929184019190610a9a906110f9565b80601f0160208091040260200160405190810160405280929190818152602001828054610ac6906110f9565b8015610b135780601f10610ae857610100808354040283529160200191610b13565b820191906000526020600020905b815481529060010190602001808311610af657829003601f168201915b50505050508152602001600282018054610b2c906110f9565b80601f0160208091040260200160405190810160405280929190818152602001828054610b58906110f9565b8015610ba55780601f10610b7a57610100808354040283529160200191610ba5565b820191906000526020600020905b815481529060010190602001808311610b8857829003601f168201915b50505050508152602001600382018054610bbe906110f9565b80601f0160208091040260200160405190810160405280929190818152602001828054610bea906110f9565b8015610c375780601f10610c0c57610100808354040283529160200191610c37565b820191906000526020600020905b815481529060010190602001808311610c1a57829003601f168201915b50505050508152602001600482018054610c50906110f9565b80601f0160208091040260200160405190810160405280929190818152602001828054610c7c906110f9565b8015610cc95780601f10610c9e57610100808354040283529160200191610cc9565b820191906000526020600020905b815481529060010190602001808311610cac57829003601f168201915b5050509183525050600582015460208083019190915260069092015460ff161515604091820152825191830151908301516060840151608085015160a086015160c090960151949f939e50919c509a509850919650945092505050565b634e487b7160e01b600052604160045260246000fd5b600082601f830112610d4d57600080fd5b813567ffffffffffffffff80821115610d6857610d68610d26565b604051601f8301601f19908116603f01168101908282118183101715610d9057610d90610d26565b81604052838152866020858801011115610da957600080fd5b836020870160208301376000602085830101528094505050505092915050565b60008060408385031215610ddc57600080fd5b823567ffffffffffffffff80821115610df457600080fd5b610e0086838701610d3c565b93506020850135915080821115610e1657600080fd5b50610e2385828601610d3c565b9150509250929050565b80356001600160a01b0381168114610e4457600080fd5b919050565b600060208284031215610e5b57600080fd5b610e6482610e2d565b9392505050565b600060208284031215610e7d57600080fd5b5035919050565b6000815180845260005b81811015610eaa57602081850181015186830182015201610e8e565b506000602082860101526020601f19601f83011685010191505092915050565b6001600160a01b0385168152608060208201819052600090610eee90830186610e84565b8281036040840152610f008186610e84565b91505082606083015295945050505050565b600080600060608486031215610f2757600080fd5b833567ffffffffffffffff80821115610f3f57600080fd5b610f4b87838801610d3c565b94506020860135915080821115610f6157600080fd5b610f6d87838801610d3c565b93506040860135915080821115610f8357600080fd5b50610f9086828701610d3c565b9150509250925092565b600080600080600060a08688031215610fb257600080fd5b610fbb86610e2d565b9450602086013567ffffffffffffffff80821115610fd857600080fd5b610fe489838a01610d3c565b95506040880135915080821115610ffa57600080fd5b61100689838a01610d3c565b9450606088013591508082111561101c57600080fd5b61102889838a01610d3c565b9350608088013591508082111561103e57600080fd5b5061104b88828901610d3c565b9150509295509295909350565b6001600160a01b038816815260e06020820181905260009061107c90830189610e84565b828103604084015261108e8189610e84565b905082810360608401526110a28188610e84565b905082810360808401526110b68187610e84565b60a0840195909552505090151560c09091015295945050505050565b6000600182016110f257634e487b7160e01b600052601160045260246000fd5b5060010190565b600181811c9082168061110d57607f821691505b60208210810361112d57634e487b7160e01b600052602260045260246000fd5b50919050565b601f82111561117f576000816000526020600020601f850160051c8101602086101561115c5750805b601f850160051c820191505b8181101561117b57828155600101611168565b5050505b505050565b815167ffffffffffffffff81111561119e5761119e610d26565b6111b2816111ac84546110f9565b84611133565b602080601f8311600181146111e757600084156111cf5750858301515b600019600386901b1c1916600185901b17855561117b565b600085815260208120601f198616915b82811015611216578886015182559484019460019091019084016111f7565b50858210156112345787850151600019600388901b60f8161c191681555b5050505050600190811b01905550565b82815260406020820152600061125d6040830184610e84565b949350505050565b6040815260006112786040830185610e84565b9050826020830152939250505056fea2646970667358221220d3f5423301757dcb27682dbab43e8c0a0f8cc1ec937cf657881fac219d970c2d64736f6c63430008180033",
  "linkReferences": {},
  "deployedLinkReferences": {}
}